{
  "_format": "hh-sol-artifact-1",
  "contractName": "SimpleTransfer",
  "sourceName": "contracts/SimpleTransfer.sol",
  "abi": [
    {
      "inputs": [],
      "stateMutability": "nonpayable",
      "type": "constructor"
    },
    {
      "anonymous": false,
      "inputs": [
        {
          "indexed": true,
          "internalType": "address",
          "name": "from",
          "type": "address"
        },
        {
          "indexed": true,
          "internalType": "address",
          "name": "to",
          "type": "address"
        },
        {
          "indexed": false,
          "internalType": "uint256",
          "name": "amount",
          "type": "uint256"
        }
      ],
      "name": "AvaxTransfer",
      "type": "event"
    },
    {
      "anonymous": false,
      "inputs": [
        {
          "indexed": true,
          "internalType": "address",
          "name": "from",
          "type": "address"
        },
        {
          "indexed": true,
          "internalType": "address",
          "name": "token",
          "type": "address"
        },
        {
          "indexed": false,
          "internalType": "uint256",
          "name": "totalAmount",
          "type": "uint256"
        },
        {
          "indexed": false,
          "internalType": "uint256",
          "name": "recipientCount",
          "type": "uint256"
        }
      ],
      "name": "BatchTransfer",
      "type": "event"
    },
    {
      "anonymous": false,
      "inputs": [
        {
          "indexed": true,
          "internalType": "address",
          "name": "from",
          "type": "address"
        },
        {
          "indexed": true,
          "internalType": "address",
          "name": "to",
          "type": "address"
        },
        {
          "indexed": true,
          "internalType": "address",
          "name": "token",
          "type": "address"
        },
        {
          "indexed": false,
          "internalType": "uint256",
          "name": "amount",
          "type": "uint256"
        }
      ],
      "name": "TokenTransfer",
      "type": "event"
    },
    {
      "inputs": [
        {
          "internalType": "address",
          "name": "_user",
          "type": "address"
        }
      ],
      "name": "getAvaxBalance",
      "outputs": [
        {
          "internalType": "uint256",
          "name": "",
          "type": "uint256"
        }
      ],
      "stateMutability": "view",
      "type": "function"
    },
    {
      "inputs": [
        {
          "internalType": "address",
          "name": "_token",
          "type": "address"
        },
        {
          "internalType": "address",
          "name": "_user",
          "type": "address"
        }
      ],
      "name": "getTokenAllowance",
      "outputs": [
        {
          "internalType": "uint256",
          "name": "",
          "type": "uint256"
        }
      ],
      "stateMutability": "view",
      "type": "function"
    },
    {
      "inputs": [
        {
          "internalType": "address",
          "name": "_token",
          "type": "address"
        },
        {
          "internalType": "address",
          "name": "_user",
          "type": "address"
        }
      ],
      "name": "getTokenBalance",
      "outputs": [
        {
          "internalType": "uint256",
          "name": "",
          "type": "uint256"
        }
      ],
      "stateMutability": "view",
      "type": "function"
    },
    {
      "inputs": [],
      "name": "owner",
      "outputs": [
        {
          "internalType": "address",
          "name": "",
          "type": "address"
        }
      ],
      "stateMutability": "view",
      "type": "function"
    },
    {
      "inputs": [
        {
          "internalType": "address payable",
          "name": "_to",
          "type": "address"
        },
        {
          "internalType": "uint256",
          "name": "_amount",
          "type": "uint256"
        }
      ],
      "name": "transferAvax",
      "outputs": [],
      "stateMutability": "payable",
      "type": "function"
    },
    {
      "inputs": [
        {
          "internalType": "address",
          "name": "_token",
          "type": "address"
        },
        {
          "internalType": "address",
          "name": "_to",
          "type": "address"
        },
        {
          "internalType": "uint256",
          "name": "_amount",
          "type": "uint256"
        }
      ],
      "name": "transferToken",
      "outputs": [],
      "stateMutability": "nonpayable",
      "type": "function"
    }
  ],
  "bytecode": "0x6080604052348015600f57600080fd5b50336000806101000a81548173ffffffffffffffffffffffffffffffffffffffff021916908373ffffffffffffffffffffffffffffffffffffffff1602179055506111118061005f6000396000f3fe6080604052600436106100555760003560e01c80632367a8d31461005a5780638da5cb5b14610097578063c489744b146100c2578063ea7ee010146100ff578063eb1dd3041461013c578063f5537ede14610158575b600080fd5b34801561006657600080fd5b50610081600480360381019061007c9190610a75565b610181565b60405161008e9190610abb565b60405180910390f35b3480156100a357600080fd5b506100ac6101a2565b6040516100b99190610ae5565b60405180910390f35b3480156100ce57600080fd5b506100e960048036038101906100e49190610b00565b6101c6565b6040516100f69190610abb565b60405180910390f35b34801561010b57600080fd5b5061012660048036038101906101219190610b00565b6102b8565b6040516101339190610abb565b60405180910390f35b61015660048036038101906101519190610baa565b6103ac565b005b34801561016457600080fd5b5061017f600480360381019061017a9190610bea565b6105c1565b005b60008173ffffffffffffffffffffffffffffffffffffffff16319050919050565b60008054906101000a900473ffffffffffffffffffffffffffffffffffffffff1681565b60008073ffffffffffffffffffffffffffffffffffffffff168373ffffffffffffffffffffffffffffffffffffffff1603610236576040517f08c379a000000000000000000000000000000000000000000000000000000000815260040161022d90610c9a565b60405180910390fd5b8273ffffffffffffffffffffffffffffffffffffffff166370a08231836040518263ffffffff1660e01b815260040161026f9190610ae5565b602060405180830381865afa15801561028c573d6000803e3d6000fd5b505050506040513d601f19601f820116820180604052508101906102b09190610ccf565b905092915050565b60008073ffffffffffffffffffffffffffffffffffffffff168373ffffffffffffffffffffffffffffffffffffffff1603610328576040517f08c379a000000000000000000000000000000000000000000000000000000000815260040161031f90610c9a565b60405180910390fd5b8273ffffffffffffffffffffffffffffffffffffffff1663dd62ed3e83306040518363ffffffff1660e01b8152600401610363929190610cfc565b602060405180830381865afa158015610380573d6000803e3d6000fd5b505050506040513d601f19601f820116820180604052508101906103a49190610ccf565b905092915050565b81600073ffffffffffffffffffffffffffffffffffffffff168173ffffffffffffffffffffffffffffffffffffffff160361041c576040517f08c379a000000000000000000000000000000000000000000000000000000000815260040161041390610d71565b60405180910390fd5b3373ffffffffffffffffffffffffffffffffffffffff168173ffffffffffffffffffffffffffffffffffffffff160361048a576040517f08c379a000000000000000000000000000000000000000000000000000000000815260040161048190610ddd565b60405180910390fd5b600082116104cd576040517f08c379a00000000000000000000000000000000000000000000000000000000081526004016104c490610e6f565b60405180910390fd5b81341015610510576040517f08c379a000000000000000000000000000000000000000000000000000000000815260040161050790610edb565b60405180910390fd5b8273ffffffffffffffffffffffffffffffffffffffff166108fc839081150290604051600060405180830381858888f19350505050158015610556573d6000803e3d6000fd5b508273ffffffffffffffffffffffffffffffffffffffff163373ffffffffffffffffffffffffffffffffffffffff167ff56c727788bfab0b5855a29d73a21463d30b9846fea079dce7c1f7d6f16133e1846040516105b49190610abb565b60405180910390a3505050565b81600073ffffffffffffffffffffffffffffffffffffffff168173ffffffffffffffffffffffffffffffffffffffff1603610631576040517f08c379a000000000000000000000000000000000000000000000000000000000815260040161062890610d71565b60405180910390fd5b3373ffffffffffffffffffffffffffffffffffffffff168173ffffffffffffffffffffffffffffffffffffffff160361069f576040517f08c379a000000000000000000000000000000000000000000000000000000000815260040161069690610ddd565b60405180910390fd5b600073ffffffffffffffffffffffffffffffffffffffff168473ffffffffffffffffffffffffffffffffffffffff160361070e576040517f08c379a000000000000000000000000000000000000000000000000000000000815260040161070590610c9a565b60405180910390fd5b60008211610751576040517f08c379a000000000000000000000000000000000000000000000000000000000815260040161074890610e6f565b60405180910390fd5b6000849050828173ffffffffffffffffffffffffffffffffffffffff166370a08231336040518263ffffffff1660e01b81526004016107909190610ae5565b602060405180830381865afa1580156107ad573d6000803e3d6000fd5b505050506040513d601f19601f820116820180604052508101906107d19190610ccf565b1015610812576040517f08c379a000000000000000000000000000000000000000000000000000000000815260040161080990610f47565b60405180910390fd5b828173ffffffffffffffffffffffffffffffffffffffff1663dd62ed3e33306040518363ffffffff1660e01b815260040161084e929190610cfc565b602060405180830381865afa15801561086b573d6000803e3d6000fd5b505050506040513d601f19601f8201168201806040525081019061088f9190610ccf565b10156108d0576040517f08c379a00000000000000000000000000000000000000000000000000000000081526004016108c790610fb3565b60405180910390fd5b8073ffffffffffffffffffffffffffffffffffffffff166323b872dd3386866040518463ffffffff1660e01b815260040161090d93929190610fd3565b6020604051808303816000875af115801561092c573d6000803e3d6000fd5b505050506040513d601f19601f820116820180604052508101906109509190611042565b61098f576040517f08c379a0000000000000000000000000000000000000000000000000000000008152600401610986906110bb565b60405180910390fd5b8473ffffffffffffffffffffffffffffffffffffffff168473ffffffffffffffffffffffffffffffffffffffff163373ffffffffffffffffffffffffffffffffffffffff167fae33cb06d7303f889d953bb09540983050163c1c4c98b330db432a911cfb63fd86604051610a039190610abb565b60405180910390a45050505050565b600080fd5b600073ffffffffffffffffffffffffffffffffffffffff82169050919050565b6000610a4282610a17565b9050919050565b610a5281610a37565b8114610a5d57600080fd5b50565b600081359050610a6f81610a49565b92915050565b600060208284031215610a8b57610a8a610a12565b5b6000610a9984828501610a60565b91505092915050565b6000819050919050565b610ab581610aa2565b82525050565b6000602082019050610ad06000830184610aac565b92915050565b610adf81610a37565b82525050565b6000602082019050610afa6000830184610ad6565b92915050565b60008060408385031215610b1757610b16610a12565b5b6000610b2585828601610a60565b9250506020610b3685828601610a60565b9150509250929050565b6000610b4b82610a17565b9050919050565b610b5b81610b40565b8114610b6657600080fd5b50565b600081359050610b7881610b52565b92915050565b610b8781610aa2565b8114610b9257600080fd5b50565b600081359050610ba481610b7e565b92915050565b60008060408385031215610bc157610bc0610a12565b5b6000610bcf85828601610b69565b9250506020610be085828601610b95565b9150509250929050565b600080600060608486031215610c0357610c02610a12565b5b6000610c1186828701610a60565b9350506020610c2286828701610a60565b9250506040610c3386828701610b95565b9150509250925092565b600082825260208201905092915050565b7f496e76616c696420746f6b656e20616464726573730000000000000000000000600082015250565b6000610c84601583610c3d565b9150610c8f82610c4e565b602082019050919050565b60006020820190508181036000830152610cb381610c77565b9050919050565b600081519050610cc981610b7e565b92915050565b600060208284031215610ce557610ce4610a12565b5b6000610cf384828501610cba565b91505092915050565b6000604082019050610d116000830185610ad6565b610d1e6020830184610ad6565b9392505050565b7f496e76616c696420616464726573730000000000000000000000000000000000600082015250565b6000610d5b600f83610c3d565b9150610d6682610d25565b602082019050919050565b60006020820190508181036000830152610d8a81610d4e565b9050919050565b7f43616e6e6f74207472616e7366657220746f20796f757273656c660000000000600082015250565b6000610dc7601b83610c3d565b9150610dd282610d91565b602082019050919050565b60006020820190508181036000830152610df681610dba565b9050919050565b7f5472616e7366657220616d6f756e74206d75737420626520677265617465722060008201527f7468616e20300000000000000000000000000000000000000000000000000000602082015250565b6000610e59602683610c3d565b9150610e6482610dfd565b604082019050919050565b60006020820190508181036000830152610e8881610e4c565b9050919050565b7f496e73756666696369656e7420415641582073656e7400000000000000000000600082015250565b6000610ec5601683610c3d565b9150610ed082610e8f565b602082019050919050565b60006020820190508181036000830152610ef481610eb8565b9050919050565b7f496e73756666696369656e7420746f6b656e2062616c616e6365000000000000600082015250565b6000610f31601a83610c3d565b9150610f3c82610efb565b602082019050919050565b60006020820190508181036000830152610f6081610f24565b9050919050565b7f496e73756666696369656e7420616c6c6f77616e636500000000000000000000600082015250565b6000610f9d601683610c3d565b9150610fa882610f67565b602082019050919050565b60006020820190508181036000830152610fcc81610f90565b9050919050565b6000606082019050610fe86000830186610ad6565b610ff56020830185610ad6565b6110026040830184610aac565b949350505050565b60008115159050919050565b61101f8161100a565b811461102a57600080fd5b50565b60008151905061103c81611016565b92915050565b60006020828403121561105857611057610a12565b5b60006110668482850161102d565b91505092915050565b7f546f6b656e207472616e73666572206661696c65640000000000000000000000600082015250565b60006110a5601583610c3d565b91506110b08261106f565b602082019050919050565b600060208201905081810360008301526110d481611098565b905091905056fea26469706673582212204dae065bc1e9f486e2a7b72722d32330b870ee2af6ccda86c88c970482cbd83964736f6c634300081c0033",
  "linkReferences": {},
  "deployedLinkReferences": {}
}